{
  "_format": "hh-sol-artifact-1",
  "contractName": "RealEstate",
  "sourceName": "contracts/RealEstate.sol",
  "abi": [
    {
      "anonymous": false,
      "inputs": [
        {
          "indexed": true,
          "internalType": "uint256",
          "name": "id",
          "type": "uint256"
        },
        {
          "indexed": true,
          "internalType": "address",
          "name": "owner",
          "type": "address"
        },
        {
          "indexed": false,
          "internalType": "uint256",
          "name": "price",
          "type": "uint256"
        }
      ],
      "name": "PropertyListed",
      "type": "event"
    },
    {
      "anonymous": false,
      "inputs": [
        {
          "indexed": true,
          "internalType": "uint256",
          "name": "id",
          "type": "uint256"
        },
        {
          "indexed": true,
          "internalType": "address",
          "name": "oldOwner",
          "type": "address"
        },
        {
          "indexed": true,
          "internalType": "address",
          "name": "newOwner",
          "type": "address"
        },
        {
          "indexed": false,
          "internalType": "uint256",
          "name": "price",
          "type": "uint256"
        }
      ],
      "name": "PropertyResold",
      "type": "event"
    },
    {
      "anonymous": false,
      "inputs": [
        {
          "indexed": true,
          "internalType": "uint256",
          "name": "id",
          "type": "uint256"
        },
        {
          "indexed": true,
          "internalType": "address",
          "name": "oldOwner",
          "type": "address"
        },
        {
          "indexed": true,
          "internalType": "address",
          "name": "newOwner",
          "type": "address"
        },
        {
          "indexed": false,
          "internalType": "uint256",
          "name": "price",
          "type": "uint256"
        }
      ],
      "name": "PropertySold",
      "type": "event"
    },
    {
      "anonymous": false,
      "inputs": [
        {
          "indexed": true,
          "internalType": "uint256",
          "name": "productId",
          "type": "uint256"
        },
        {
          "indexed": true,
          "internalType": "address",
          "name": "reviewer",
          "type": "address"
        },
        {
          "indexed": false,
          "internalType": "uint8",
          "name": "rating",
          "type": "uint8"
        },
        {
          "indexed": false,
          "internalType": "string",
          "name": "comment",
          "type": "string"
        }
      ],
      "name": "ReviewAdded",
      "type": "event"
    },
    {
      "anonymous": false,
      "inputs": [
        {
          "indexed": true,
          "internalType": "uint256",
          "name": "productId",
          "type": "uint256"
        },
        {
          "indexed": true,
          "internalType": "uint256",
          "name": "reviewIndex",
          "type": "uint256"
        },
        {
          "indexed": true,
          "internalType": "address",
          "name": "liker",
          "type": "address"
        },
        {
          "indexed": false,
          "internalType": "uint256",
          "name": "likes",
          "type": "uint256"
        }
      ],
      "name": "ReviewLiked",
      "type": "event"
    },
    {
      "inputs": [
        {
          "internalType": "uint256",
          "name": "productId",
          "type": "uint256"
        },
        {
          "internalType": "uint8",
          "name": "rating",
          "type": "uint8"
        },
        {
          "internalType": "string",
          "name": "comment",
          "type": "string"
        },
        {
          "internalType": "address",
          "name": "user",
          "type": "address"
        }
      ],
      "name": "addReview",
      "outputs": [],
      "stateMutability": "nonpayable",
      "type": "function"
    },
    {
      "inputs": [
        {
          "internalType": "uint256",
          "name": "id",
          "type": "uint256"
        },
        {
          "internalType": "address",
          "name": "buyer",
          "type": "address"
        }
      ],
      "name": "buyProperty",
      "outputs": [],
      "stateMutability": "payable",
      "type": "function"
    },
    {
      "inputs": [],
      "name": "getAllProperties",
      "outputs": [
        {
          "components": [
            {
              "internalType": "uint256",
              "name": "productID",
              "type": "uint256"
            },
            {
              "internalType": "address",
              "name": "owner",
              "type": "address"
            },
            {
              "internalType": "uint256",
              "name": "price",
              "type": "uint256"
            },
            {
              "internalType": "string",
              "name": "propertyTitle",
              "type": "string"
            },
            {
              "internalType": "string",
              "name": "category",
              "type": "string"
            },
            {
              "internalType": "string",
              "name": "images",
              "type": "string"
            },
            {
              "internalType": "string",
              "name": "propertyAddress",
              "type": "string"
            },
            {
              "internalType": "string",
              "name": "description",
              "type": "string"
            },
            {
              "internalType": "address[]",
              "name": "reviewers",
              "type": "address[]"
            },
            {
              "internalType": "string[]",
              "name": "reviews",
              "type": "string[]"
            }
          ],
          "internalType": "struct RealEstate.Property[]",
          "name": "",
          "type": "tuple[]"
        }
      ],
      "stateMutability": "view",
      "type": "function"
    },
    {
      "inputs": [],
      "name": "getHighestRatedProduct",
      "outputs": [
        {
          "internalType": "uint256",
          "name": "",
          "type": "uint256"
        }
      ],
      "stateMutability": "view",
      "type": "function"
    },
    {
      "inputs": [],
      "name": "getListingPrice",
      "outputs": [
        {
          "internalType": "uint256",
          "name": "",
          "type": "uint256"
        }
      ],
      "stateMutability": "view",
      "type": "function"
    },
    {
      "inputs": [
        {
          "internalType": "uint256",
          "name": "productId",
          "type": "uint256"
        }
      ],
      "name": "getProductReviews",
      "outputs": [
        {
          "components": [
            {
              "internalType": "address",
              "name": "reviewer",
              "type": "address"
            },
            {
              "internalType": "uint256",
              "name": "productId",
              "type": "uint256"
            },
            {
              "internalType": "uint8",
              "name": "rating",
              "type": "uint8"
            },
            {
              "internalType": "string",
              "name": "comment",
              "type": "string"
            },
            {
              "internalType": "uint256",
              "name": "likes",
              "type": "uint256"
            },
            {
              "internalType": "uint256",
              "name": "reviewIndex",
              "type": "uint256"
            }
          ],
          "internalType": "struct RealEstate.Review[]",
          "name": "",
          "type": "tuple[]"
        }
      ],
      "stateMutability": "view",
      "type": "function"
    },
    {
      "inputs": [
        {
          "internalType": "uint256",
          "name": "id",
          "type": "uint256"
        }
      ],
      "name": "getProperty",
      "outputs": [
        {
          "internalType": "uint256",
          "name": "",
          "type": "uint256"
        },
        {
          "internalType": "address",
          "name": "",
          "type": "address"
        },
        {
          "internalType": "uint256",
          "name": "",
          "type": "uint256"
        },
        {
          "internalType": "string",
          "name": "",
          "type": "string"
        },
        {
          "internalType": "string",
          "name": "",
          "type": "string"
        },
        {
          "internalType": "string",
          "name": "",
          "type": "string"
        },
        {
          "internalType": "string",
          "name": "",
          "type": "string"
        },
        {
          "internalType": "string",
          "name": "",
          "type": "string"
        },
        {
          "internalType": "address[]",
          "name": "",
          "type": "address[]"
        },
        {
          "internalType": "string[]",
          "name": "",
          "type": "string[]"
        }
      ],
      "stateMutability": "view",
      "type": "function"
    },
    {
      "inputs": [
        {
          "internalType": "address",
          "name": "user",
          "type": "address"
        }
      ],
      "name": "getUserProperties",
      "outputs": [
        {
          "components": [
            {
              "internalType": "uint256",
              "name": "productID",
              "type": "uint256"
            },
            {
              "internalType": "address",
              "name": "owner",
              "type": "address"
            },
            {
              "internalType": "uint256",
              "name": "price",
              "type": "uint256"
            },
            {
              "internalType": "string",
              "name": "propertyTitle",
              "type": "string"
            },
            {
              "internalType": "string",
              "name": "category",
              "type": "string"
            },
            {
              "internalType": "string",
              "name": "images",
              "type": "string"
            },
            {
              "internalType": "string",
              "name": "propertyAddress",
              "type": "string"
            },
            {
              "internalType": "string",
              "name": "description",
              "type": "string"
            },
            {
              "internalType": "address[]",
              "name": "reviewers",
              "type": "address[]"
            },
            {
              "internalType": "string[]",
              "name": "reviews",
              "type": "string[]"
            }
          ],
          "internalType": "struct RealEstate.Property[]",
          "name": "",
          "type": "tuple[]"
        }
      ],
      "stateMutability": "view",
      "type": "function"
    },
    {
      "inputs": [
        {
          "internalType": "address",
          "name": "user",
          "type": "address"
        }
      ],
      "name": "getUserReviews",
      "outputs": [
        {
          "components": [
            {
              "internalType": "address",
              "name": "reviewer",
              "type": "address"
            },
            {
              "internalType": "uint256",
              "name": "productId",
              "type": "uint256"
            },
            {
              "internalType": "uint8",
              "name": "rating",
              "type": "uint8"
            },
            {
              "internalType": "string",
              "name": "comment",
              "type": "string"
            },
            {
              "internalType": "uint256",
              "name": "likes",
              "type": "uint256"
            },
            {
              "internalType": "uint256",
              "name": "reviewIndex",
              "type": "uint256"
            }
          ],
          "internalType": "struct RealEstate.Review[]",
          "name": "",
          "type": "tuple[]"
        }
      ],
      "stateMutability": "view",
      "type": "function"
    },
    {
      "inputs": [
        {
          "internalType": "uint256",
          "name": "productId",
          "type": "uint256"
        },
        {
          "internalType": "uint256",
          "name": "reviewIndex",
          "type": "uint256"
        },
        {
          "internalType": "address",
          "name": "user",
          "type": "address"
        }
      ],
      "name": "likeReview",
      "outputs": [],
      "stateMutability": "nonpayable",
      "type": "function"
    },
    {
      "inputs": [
        {
          "internalType": "address",
          "name": "owner",
          "type": "address"
        },
        {
          "internalType": "uint256",
          "name": "price",
          "type": "uint256"
        },
        {
          "internalType": "string",
          "name": "_propertyTitle",
          "type": "string"
        },
        {
          "internalType": "string",
          "name": "_category",
          "type": "string"
        },
        {
          "internalType": "string",
          "name": "_images",
          "type": "string"
        },
        {
          "internalType": "string",
          "name": "_propertyAddress",
          "type": "string"
        },
        {
          "internalType": "string",
          "name": "_description",
          "type": "string"
        }
      ],
      "name": "listProperty",
      "outputs": [
        {
          "internalType": "uint256",
          "name": "",
          "type": "uint256"
        },
        {
          "internalType": "string",
          "name": "",
          "type": "string"
        },
        {
          "internalType": "string",
          "name": "",
          "type": "string"
        },
        {
          "internalType": "string",
          "name": "",
          "type": "string"
        },
        {
          "internalType": "string",
          "name": "",
          "type": "string"
        }
      ],
      "stateMutability": "nonpayable",
      "type": "function"
    },
    {
      "inputs": [],
      "name": "listingPrice",
      "outputs": [
        {
          "internalType": "uint256",
          "name": "",
          "type": "uint256"
        }
      ],
      "stateMutability": "view",
      "type": "function"
    },
    {
      "inputs": [],
      "name": "propertyIndex",
      "outputs": [
        {
          "internalType": "uint256",
          "name": "",
          "type": "uint256"
        }
      ],
      "stateMutability": "view",
      "type": "function"
    },
    {
      "inputs": [],
      "name": "reviewsCounter",
      "outputs": [
        {
          "internalType": "uint256",
          "name": "",
          "type": "uint256"
        }
      ],
      "stateMutability": "view",
      "type": "function"
    },
    {
      "inputs": [
        {
          "internalType": "uint256",
          "name": "_listingPrice",
          "type": "uint256"
        },
        {
          "internalType": "address",
          "name": "owner",
          "type": "address"
        }
      ],
      "name": "updateListingPrice",
      "outputs": [],
      "stateMutability": "payable",
      "type": "function"
    },
    {
      "inputs": [
        {
          "internalType": "address",
          "name": "owner",
          "type": "address"
        },
        {
          "internalType": "uint256",
          "name": "productId",
          "type": "uint256"
        },
        {
          "internalType": "uint256",
          "name": "price",
          "type": "uint256"
        }
      ],
      "name": "updatePrice",
      "outputs": [
        {
          "internalType": "string",
          "name": "",
          "type": "string"
        }
      ],
      "stateMutability": "nonpayable",
      "type": "function"
    },
    {
      "inputs": [
        {
          "internalType": "address",
          "name": "owner",
          "type": "address"
        },
        {
          "internalType": "uint256",
          "name": "productId",
          "type": "uint256"
        },
        {
          "internalType": "string",
          "name": "_propertyTitle",
          "type": "string"
        },
        {
          "internalType": "string",
          "name": "_category",
          "type": "string"
        },
        {
          "internalType": "string",
          "name": "_images",
          "type": "string"
        },
        {
          "internalType": "string",
          "name": "_propertyAddress",
          "type": "string"
        },
        {
          "internalType": "string",
          "name": "_description",
          "type": "string"
        }
      ],
      "name": "updateProperty",
      "outputs": [
        {
          "internalType": "uint256",
          "name": "",
          "type": "uint256"
        },
        {
          "internalType": "string",
          "name": "",
          "type": "string"
        },
        {
          "internalType": "string",
          "name": "",
          "type": "string"
        },
        {
          "internalType": "string",
          "name": "",
          "type": "string"
        },
        {
          "internalType": "string",
          "name": "",
          "type": "string"
        },
        {
          "internalType": "string",
          "name": "",
          "type": "string"
        }
      ],
      "stateMutability": "nonpayable",
      "type": "function"
    }
  ],
  "bytecode": "0x608060405273b309098bcb51e5c687a16fa41bd6055f47c9ebb06000806101000a81548173ffffffffffffffffffffffffffffffffffffffff021916908373ffffffffffffffffffffffffffffffffffffffff1602179055506658d15e1762800060015534801561006f57600080fd5b50613cfc8061007f6000396000f3fe6080604052600436106100fe5760003560e01c806380cad5a611610095578063c78f19f911610064578063c78f19f914610367578063dc035e6d14610392578063e2fc6b95146103bb578063e57d6fb7146103e4578063f56720b514610421576100fe565b806380cad5a6146102d9578063844ce562146102f55780639e92a69414610320578063a3007b1f1461033c576100fe565b80633b3bfa15116100d15780633b3bfa15146101ee5780633d51402c1461023057806346a4237b1461025b5780637078930814610298576100fe565b8063060a3e611461010357806312e855851461014057806318d0e8b21461016b57806332665ffb146101a8575b600080fd5b34801561010f57600080fd5b5061012a600480360381019061012591906129a0565b61044c565b6040516101379190612dc5565b60405180910390f35b34801561014c57600080fd5b50610155610b06565b6040516101629190612df6565b60405180910390f35b34801561017757600080fd5b50610192600480360381019061018d91906129a0565b610b10565b60405161019f9190612f78565b60405180910390f35b3480156101b457600080fd5b506101cf60048036038101906101ca9190612fc6565b610eba565b6040516101e59a99989796959493929190613141565b60405180910390f35b3480156101fa57600080fd5b5061021560048036038101906102109190613343565b6113ee565b60405161022796959493929190613471565b60405180910390f35b34801561023c57600080fd5b50610245611541565b6040516102529190612dc5565b60405180910390f35b34801561026757600080fd5b50610282600480360381019061027d9190612fc6565b611ada565b60405161028f9190612f78565b60405180910390f35b3480156102a457600080fd5b506102bf60048036038101906102ba9190613343565b611c6f565b6040516102d09594939291906134f5565b60405180910390f35b6102f360048036038101906102ee9190613564565b611e31565b005b34801561030157600080fd5b5061030a611f58565b6040516103179190612df6565b60405180910390f35b61033a60048036038101906103359190613564565b611f5e565b005b34801561034857600080fd5b5061035161213d565b60405161035e9190612df6565b60405180910390f35b34801561037357600080fd5b5061037c6121ec565b6040516103899190612df6565b60405180910390f35b34801561039e57600080fd5b506103b960048036038101906103b491906135a4565b6121f2565b005b3480156103c757600080fd5b506103e260048036038101906103dd9190613683565b61229d565b005b3480156103f057600080fd5b5061040b6004803603810190610406919061370b565b612653565b604051610418919061375e565b60405180910390f35b34801561042d57600080fd5b50610436612747565b6040516104439190612df6565b60405180910390f35b60606000600354905060008060005b838110156104fc578573ffffffffffffffffffffffffffffffffffffffff166002600060018461048b91906137af565b815260200190815260200160002060010160009054906101000a900473ffffffffffffffffffffffffffffffffffffffff1673ffffffffffffffffffffffffffffffffffffffff1614156104e9576001836104e691906137af565b92505b80806104f490613805565b91505061045b565b5060008267ffffffffffffffff81111561051957610518613218565b5b60405190808252806020026020018201604052801561055257816020015b61053f61274d565b8152602001906001900390816105375790505b50905060005b84811015610af9578673ffffffffffffffffffffffffffffffffffffffff166002600060018461058891906137af565b815260200190815260200160002060010160009054906101000a900473ffffffffffffffffffffffffffffffffffffffff1673ffffffffffffffffffffffffffffffffffffffff161415610ae65760006001826105e591906137af565b905060006002600083815260200190815260200160002090508060405180610140016040529081600082015481526020016001820160009054906101000a900473ffffffffffffffffffffffffffffffffffffffff1673ffffffffffffffffffffffffffffffffffffffff1673ffffffffffffffffffffffffffffffffffffffff168152602001600282015481526020016003820180546106859061387d565b80601f01602080910402602001604051908101604052809291908181526020018280546106b19061387d565b80156106fe5780601f106106d3576101008083540402835291602001916106fe565b820191906000526020600020905b8154815290600101906020018083116106e157829003601f168201915b505050505081526020016004820180546107179061387d565b80601f01602080910402602001604051908101604052809291908181526020018280546107439061387d565b80156107905780601f1061076557610100808354040283529160200191610790565b820191906000526020600020905b81548152906001019060200180831161077357829003601f168201915b505050505081526020016005820180546107a99061387d565b80601f01602080910402602001604051908101604052809291908181526020018280546107d59061387d565b80156108225780601f106107f757610100808354040283529160200191610822565b820191906000526020600020905b81548152906001019060200180831161080557829003601f168201915b5050505050815260200160068201805461083b9061387d565b80601f01602080910402602001604051908101604052809291908181526020018280546108679061387d565b80156108b45780601f10610889576101008083540402835291602001916108b4565b820191906000526020600020905b81548152906001019060200180831161089757829003601f168201915b505050505081526020016007820180546108cd9061387d565b80601f01602080910402602001604051908101604052809291908181526020018280546108f99061387d565b80156109465780601f1061091b57610100808354040283529160200191610946565b820191906000526020600020905b81548152906001019060200180831161092957829003601f168201915b50505050508152602001600882018054806020026020016040519081016040528092919081815260200182805480156109d457602002820191906000526020600020905b8160009054906101000a900473ffffffffffffffffffffffffffffffffffffffff1673ffffffffffffffffffffffffffffffffffffffff168152602001906001019080831161098a575b5050505050815260200160098201805480602002602001604051908101604052809291908181526020016000905b82821015610aae578382906000526020600020018054610a219061387d565b80601f0160208091040260200160405190810160405280929190818152602001828054610a4d9061387d565b8015610a9a5780601f10610a6f57610100808354040283529160200191610a9a565b820191906000526020600020905b815481529060010190602001808311610a7d57829003601f168201915b505050505081526020019060010190610a02565b5050505081525050848681518110610ac957610ac86138af565b5b6020026020010181905250600185610ae191906137af565b945050505b8080610af190613805565b915050610558565b5080945050505050919050565b6000600154905090565b60606000600560008473ffffffffffffffffffffffffffffffffffffffff1673ffffffffffffffffffffffffffffffffffffffff16815260200190815260200160002080549050905060008167ffffffffffffffff811115610b7557610b74613218565b5b604051908082528060200260200182016040528015610bae57816020015b610b9b6127b6565b815260200190600190039081610b935790505b50905060005b600560008673ffffffffffffffffffffffffffffffffffffffff1673ffffffffffffffffffffffffffffffffffffffff16815260200190815260200160002080549050811015610eaf576000600560008773ffffffffffffffffffffffffffffffffffffffff1673ffffffffffffffffffffffffffffffffffffffff1681526020019081526020016000208281548110610c5157610c506138af565b5b90600052602060002001549050600060046000838152602001908152602001600020805480602002602001604051908101604052809291908181526020016000905b82821015610de857838290600052602060002090600602016040518060c00160405290816000820160009054906101000a900473ffffffffffffffffffffffffffffffffffffffff1673ffffffffffffffffffffffffffffffffffffffff1673ffffffffffffffffffffffffffffffffffffffff168152602001600182015481526020016002820160009054906101000a900460ff1660ff1660ff168152602001600382018054610d439061387d565b80601f0160208091040260200160405190810160405280929190818152602001828054610d6f9061387d565b8015610dbc5780601f10610d9157610100808354040283529160200191610dbc565b820191906000526020600020905b815481529060010190602001808311610d9f57829003601f168201915b505050505081526020016004820154815260200160058201548152505081526020019060010190610c93565b50505050905060005b8151811015610e99578773ffffffffffffffffffffffffffffffffffffffff16828281518110610e2457610e236138af565b5b60200260200101516000015173ffffffffffffffffffffffffffffffffffffffff161415610e8657818181518110610e5f57610e5e6138af565b5b6020026020010151858581518110610e7a57610e796138af565b5b60200260200101819052505b8080610e9190613805565b915050610df1565b5050508080610ea790613805565b915050610bb4565b508092505050919050565b600080600060608060608060608060606000600260008d815260200190815260200160002060405180610140016040529081600082015481526020016001820160009054906101000a900473ffffffffffffffffffffffffffffffffffffffff1673ffffffffffffffffffffffffffffffffffffffff1673ffffffffffffffffffffffffffffffffffffffff16815260200160028201548152602001600382018054610f659061387d565b80601f0160208091040260200160405190810160405280929190818152602001828054610f919061387d565b8015610fde5780601f10610fb357610100808354040283529160200191610fde565b820191906000526020600020905b815481529060010190602001808311610fc157829003601f168201915b50505050508152602001600482018054610ff79061387d565b80601f01602080910402602001604051908101604052809291908181526020018280546110239061387d565b80156110705780601f1061104557610100808354040283529160200191611070565b820191906000526020600020905b81548152906001019060200180831161105357829003601f168201915b505050505081526020016005820180546110899061387d565b80601f01602080910402602001604051908101604052809291908181526020018280546110b59061387d565b80156111025780601f106110d757610100808354040283529160200191611102565b820191906000526020600020905b8154815290600101906020018083116110e557829003601f168201915b5050505050815260200160068201805461111b9061387d565b80601f01602080910402602001604051908101604052809291908181526020018280546111479061387d565b80156111945780601f1061116957610100808354040283529160200191611194565b820191906000526020600020905b81548152906001019060200180831161117757829003601f168201915b505050505081526020016007820180546111ad9061387d565b80601f01602080910402602001604051908101604052809291908181526020018280546111d99061387d565b80156112265780601f106111fb57610100808354040283529160200191611226565b820191906000526020600020905b81548152906001019060200180831161120957829003601f168201915b50505050508152602001600882018054806020026020016040519081016040528092919081815260200182805480156112b457602002820191906000526020600020905b8160009054906101000a900473ffffffffffffffffffffffffffffffffffffffff1673ffffffffffffffffffffffffffffffffffffffff168152602001906001019080831161126a575b5050505050815260200160098201805480602002602001604051908101604052809291908181526020016000905b8282101561138e5783829060005260206000200180546113019061387d565b80601f016020809104026020016040519081016040528092919081815260200182805461132d9061387d565b801561137a5780601f1061134f5761010080835404028352916020019161137a565b820191906000526020600020905b81548152906001019060200180831161135d57829003601f168201915b5050505050815260200190600101906112e2565b50505050815250509050806000015181602001518260400151836060015184608001518560a001518660c001518760e001518861010001518961012001519a509a509a509a509a509a509a509a509a509a50509193959799509193959799565b600060608060608060606000600260008e815260200190815260200160002090508d73ffffffffffffffffffffffffffffffffffffffff168160010160009054906101000a900473ffffffffffffffffffffffffffffffffffffffff1673ffffffffffffffffffffffffffffffffffffffff16146114a1576040517f08c379a00000000000000000000000000000000000000000000000000000000081526004016114989061392a565b60405180910390fd5b8b8160030190805190602001906114b9929190612805565b508a8160040190805190602001906114d2929190612805565b50898160050190805190602001906114eb929190612805565b5088816006019080519060200190611504929190612805565b508781600701908051906020019061151d929190612805565b508c8c898c8e8d965096509650965096509650509750975097509750975097915050565b6060600060035490506000808267ffffffffffffffff81111561156757611566613218565b5b6040519080825280602002602001820160405280156115a057816020015b61158d61274d565b8152602001906001900390816115855790505b50905060005b83811015611ad05760006001826115bd91906137af565b905060006002600083815260200190815260200160002090508060405180610140016040529081600082015481526020016001820160009054906101000a900473ffffffffffffffffffffffffffffffffffffffff1673ffffffffffffffffffffffffffffffffffffffff1673ffffffffffffffffffffffffffffffffffffffff1681526020016002820154815260200160038201805461165d9061387d565b80601f01602080910402602001604051908101604052809291908181526020018280546116899061387d565b80156116d65780601f106116ab576101008083540402835291602001916116d6565b820191906000526020600020905b8154815290600101906020018083116116b957829003601f168201915b505050505081526020016004820180546116ef9061387d565b80601f016020809104026020016040519081016040528092919081815260200182805461171b9061387d565b80156117685780601f1061173d57610100808354040283529160200191611768565b820191906000526020600020905b81548152906001019060200180831161174b57829003601f168201915b505050505081526020016005820180546117819061387d565b80601f01602080910402602001604051908101604052809291908181526020018280546117ad9061387d565b80156117fa5780601f106117cf576101008083540402835291602001916117fa565b820191906000526020600020905b8154815290600101906020018083116117dd57829003601f168201915b505050505081526020016006820180546118139061387d565b80601f016020809104026020016040519081016040528092919081815260200182805461183f9061387d565b801561188c5780601f106118615761010080835404028352916020019161188c565b820191906000526020600020905b81548152906001019060200180831161186f57829003601f168201915b505050505081526020016007820180546118a59061387d565b80601f01602080910402602001604051908101604052809291908181526020018280546118d19061387d565b801561191e5780601f106118f35761010080835404028352916020019161191e565b820191906000526020600020905b81548152906001019060200180831161190157829003601f168201915b50505050508152602001600882018054806020026020016040519081016040528092919081815260200182805480156119ac57602002820191906000526020600020905b8160009054906101000a900473ffffffffffffffffffffffffffffffffffffffff1673ffffffffffffffffffffffffffffffffffffffff1681526020019060010190808311611962575b5050505050815260200160098201805480602002602001604051908101604052809291908181526020016000905b82821015611a865783829060005260206000200180546119f99061387d565b80601f0160208091040260200160405190810160405280929190818152602001828054611a259061387d565b8015611a725780601f10611a4757610100808354040283529160200191611a72565b820191906000526020600020905b815481529060010190602001808311611a5557829003601f168201915b5050505050815260200190600101906119da565b5050505081525050848681518110611aa157611aa06138af565b5b6020026020010181905250600185611ab991906137af565b945050508080611ac890613805565b9150506115a6565b5080935050505090565b606060046000838152602001908152602001600020805480602002602001604051908101604052809291908181526020016000905b82821015611c6457838290600052602060002090600602016040518060c00160405290816000820160009054906101000a900473ffffffffffffffffffffffffffffffffffffffff1673ffffffffffffffffffffffffffffffffffffffff1673ffffffffffffffffffffffffffffffffffffffff168152602001600182015481526020016002820160009054906101000a900460ff1660ff1660ff168152602001600382018054611bbf9061387d565b80601f0160208091040260200160405190810160405280929190818152602001828054611beb9061387d565b8015611c385780601f10611c0d57610100808354040283529160200191611c38565b820191906000526020600020905b815481529060010190602001808311611c1b57829003601f168201915b505050505081526020016004820154815260200160058201548152505081526020019060010190611b0f565b505050509050919050565b600060608060608060008b11611cba576040517f08c379a0000000000000000000000000000000000000000000000000000000008152600401611cb190613996565b60405180910390fd5b60036000815480929190611ccd90613805565b91905055506000600354905060006002600083815260200190815260200160002090508181600001819055508d8160010160006101000a81548173ffffffffffffffffffffffffffffffffffffffff021916908373ffffffffffffffffffffffffffffffffffffffff1602179055508c81600201819055508b816003019080519060200190611d5d929190612805565b508a816004019080519060200190611d76929190612805565b5089816005019080519060200190611d8f929190612805565b5088816006019080519060200190611da8929190612805565b5087816007019080519060200190611dc1929190612805565b508d73ffffffffffffffffffffffffffffffffffffffff16827f23fb658c1698b92f5fe511a079c17ecf7965cbc3f1b873328c67e2c3c0820f1f8f604051611e099190612df6565b60405180910390a3818c898c8e96509650965096509650505097509750975097509792505050565b60008054906101000a900473ffffffffffffffffffffffffffffffffffffffff1673ffffffffffffffffffffffffffffffffffffffff163373ffffffffffffffffffffffffffffffffffffffff1614611ebf576040517f08c379a0000000000000000000000000000000000000000000000000000000008152600401611eb690613a28565b60405180910390fd5b8073ffffffffffffffffffffffffffffffffffffffff1660008054906101000a900473ffffffffffffffffffffffffffffffffffffffff1673ffffffffffffffffffffffffffffffffffffffff1614611f4d576040517f08c379a0000000000000000000000000000000000000000000000000000000008152600401611f4490613aba565b60405180910390fd5b816001819055505050565b60075481565b600034905060026000848152602001908152602001600020600201548114611fbb576040517f08c379a0000000000000000000000000000000000000000000000000000000008152600401611fb290613b26565b60405180910390fd5b600060026000858152602001908152602001600020905060008160010160009054906101000a900473ffffffffffffffffffffffffffffffffffffffff1673ffffffffffffffffffffffffffffffffffffffff168360405161201c90613b77565b60006040518083038185875af1925050503d8060008114612059576040519150601f19603f3d011682016040523d82523d6000602084013e61205e565b606091505b50509050801561213657838260010160006101000a81548173ffffffffffffffffffffffffffffffffffffffff021916908373ffffffffffffffffffffffffffffffffffffffff1602179055508373ffffffffffffffffffffffffffffffffffffffff168260010160009054906101000a900473ffffffffffffffffffffffffffffffffffffffff1673ffffffffffffffffffffffffffffffffffffffff16867fddd64180d9701c7ede08673ac8106484ff983a472929330d4fbde4e35d65cb068660405161212d9190612df6565b60405180910390a45b5050505050565b600080600090506000805b6007548110156121e357600060018261216191906137af565b90506000600660008381526020019081526020016000206002015411156121cf576000600660008381526020019081526020016000206002015460066000848152602001908152602001600020600101546121bc9190613bbb565b9050848111156121cd578094508193505b505b5080806121db90613805565b915050612148565b50809250505090565b60015481565b6000600460008581526020019081526020016000208381548110612219576122186138af565b5b9060005260206000209060060201905080600401600081548092919061223e90613805565b91905055508173ffffffffffffffffffffffffffffffffffffffff1683857fc58deae63c2d94e1502a392380f59901dc4cd3c3bbc40308b6189decf09671d5846004015460405161228f9190612df6565b60405180910390a450505050565b60018460ff16101580156122b5575060058460ff1611155b6122f4576040517f08c379a00000000000000000000000000000000000000000000000000000000081526004016122eb90613c38565b60405180910390fd5b600060026000878152602001908152602001600020905080600801829080600181540180825580915050600190039060005260206000200160009091909190916101000a81548173ffffffffffffffffffffffffffffffffffffffff021916908373ffffffffffffffffffffffffffffffffffffffff160217905550806009018484909180600181540180825580915050600190039060005260206000200160009091929091929091929091925091906123af92919061288b565b50600460008781526020019081526020016000206040518060c001604052808473ffffffffffffffffffffffffffffffffffffffff1681526020018881526020018760ff16815260200186868080601f016020809104026020016040519081016040528093929190818152602001838380828437600081840152601f19601f82011690508083019250505050505050815260200160008152602001600754815250908060018154018082558091505060019003906000526020600020906006020160009091909190915060008201518160000160006101000a81548173ffffffffffffffffffffffffffffffffffffffff021916908373ffffffffffffffffffffffffffffffffffffffff1602179055506020820151816001015560408201518160020160006101000a81548160ff021916908360ff1602179055506060820151816003019080519060200190612507929190612805565b506080820151816004015560a082015181600501555050600560008373ffffffffffffffffffffffffffffffffffffffff1673ffffffffffffffffffffffffffffffffffffffff1681526020019081526020016000208690806001815401808255809150506001900390600052602060002001600090919091909150558460ff166006600088815260200190815260200160002060010160008282546125ad91906137af565b925050819055506006600087815260200190815260200160002060020160008154809291906125db90613805565b91905055508173ffffffffffffffffffffffffffffffffffffffff16867f4a7905ef60a1bc6706f11a56f05a4ebb480a37effdcaaba357946727b7aa074387878760405161262b93929190613c94565b60405180910390a36007600081548092919061264690613805565b9190505550505050505050565b606060006002600085815260200190815260200160002090508473ffffffffffffffffffffffffffffffffffffffff168160010160009054906101000a900473ffffffffffffffffffffffffffffffffffffffff1673ffffffffffffffffffffffffffffffffffffffff16146126fe576040517f08c379a00000000000000000000000000000000000000000000000000000000081526004016126f59061392a565b60405180910390fd5b8281600201819055506040518060400160405280601e81526020017f596f75722050726f7065727479205072696365204973205570646174656400008152509150509392505050565b60035481565b60405180610140016040528060008152602001600073ffffffffffffffffffffffffffffffffffffffff16815260200160008152602001606081526020016060815260200160608152602001606081526020016060815260200160608152602001606081525090565b6040518060c00160405280600073ffffffffffffffffffffffffffffffffffffffff16815260200160008152602001600060ff1681526020016060815260200160008152602001600081525090565b8280546128119061387d565b90600052602060002090601f016020900481019282612833576000855561287a565b82601f1061284c57805160ff191683800117855561287a565b8280016001018555821561287a579182015b8281111561287957825182559160200191906001019061285e565b5b5090506128879190612911565b5090565b8280546128979061387d565b90600052602060002090601f0160209004810192826128b95760008555612900565b82601f106128d257803560ff1916838001178555612900565b82800160010185558215612900579182015b828111156128ff5782358255916020019190600101906128e4565b5b50905061290d9190612911565b5090565b5b8082111561292a576000816000905550600101612912565b5090565b6000604051905090565b600080fd5b600080fd5b600073ffffffffffffffffffffffffffffffffffffffff82169050919050565b600061296d82612942565b9050919050565b61297d81612962565b811461298857600080fd5b50565b60008135905061299a81612974565b92915050565b6000602082840312156129b6576129b5612938565b5b60006129c48482850161298b565b91505092915050565b600081519050919050565b600082825260208201905092915050565b6000819050602082019050919050565b6000819050919050565b612a0c816129f9565b82525050565b612a1b81612962565b82525050565b600081519050919050565b600082825260208201905092915050565b60005b83811015612a5b578082015181840152602081019050612a40565b83811115612a6a576000848401525b50505050565b6000601f19601f8301169050919050565b6000612a8c82612a21565b612a968185612a2c565b9350612aa6818560208601612a3d565b612aaf81612a70565b840191505092915050565b600081519050919050565b600082825260208201905092915050565b6000819050602082019050919050565b6000612af28383612a12565b60208301905092915050565b6000602082019050919050565b6000612b1682612aba565b612b208185612ac5565b9350612b2b83612ad6565b8060005b83811015612b5c578151612b438882612ae6565b9750612b4e83612afe565b925050600181019050612b2f565b5085935050505092915050565b600081519050919050565b600082825260208201905092915050565b6000819050602082019050919050565b6000612ba18383612a81565b905092915050565b6000602082019050919050565b6000612bc182612b69565b612bcb8185612b74565b935083602082028501612bdd85612b85565b8060005b85811015612c195784840389528151612bfa8582612b95565b9450612c0583612ba9565b925060208a01995050600181019050612be1565b50829750879550505050505092915050565b600061014083016000830151612c446000860182612a03565b506020830151612c576020860182612a12565b506040830151612c6a6040860182612a03565b5060608301518482036060860152612c828282612a81565b91505060808301518482036080860152612c9c8282612a81565b91505060a083015184820360a0860152612cb68282612a81565b91505060c083015184820360c0860152612cd08282612a81565b91505060e083015184820360e0860152612cea8282612a81565b915050610100830151848203610100860152612d068282612b0b565b915050610120830151848203610120860152612d228282612bb6565b9150508091505092915050565b6000612d3b8383612c2b565b905092915050565b6000602082019050919050565b6000612d5b826129cd565b612d6581856129d8565b935083602082028501612d77856129e9565b8060005b85811015612db35784840389528151612d948582612d2f565b9450612d9f83612d43565b925060208a01995050600181019050612d7b565b50829750879550505050505092915050565b60006020820190508181036000830152612ddf8184612d50565b905092915050565b612df0816129f9565b82525050565b6000602082019050612e0b6000830184612de7565b92915050565b600081519050919050565b600082825260208201905092915050565b6000819050602082019050919050565b600060ff82169050919050565b612e5381612e3d565b82525050565b600060c083016000830151612e716000860182612a12565b506020830151612e846020860182612a03565b506040830151612e976040860182612e4a565b5060608301518482036060860152612eaf8282612a81565b9150506080830151612ec46080860182612a03565b5060a0830151612ed760a0860182612a03565b508091505092915050565b6000612eee8383612e59565b905092915050565b6000602082019050919050565b6000612f0e82612e11565b612f188185612e1c565b935083602082028501612f2a85612e2d565b8060005b85811015612f665784840389528151612f478582612ee2565b9450612f5283612ef6565b925060208a01995050600181019050612f2e565b50829750879550505050505092915050565b60006020820190508181036000830152612f928184612f03565b905092915050565b612fa3816129f9565b8114612fae57600080fd5b50565b600081359050612fc081612f9a565b92915050565b600060208284031215612fdc57612fdb612938565b5b6000612fea84828501612fb1565b91505092915050565b612ffc81612962565b82525050565b600082825260208201905092915050565b600061301e82612a21565b6130288185613002565b9350613038818560208601612a3d565b61304181612a70565b840191505092915050565b600082825260208201905092915050565b600061306882612aba565b613072818561304c565b935061307d83612ad6565b8060005b838110156130ae5781516130958882612ae6565b97506130a083612afe565b925050600181019050613081565b5085935050505092915050565b600082825260208201905092915050565b60006130d782612b69565b6130e181856130bb565b9350836020820285016130f385612b85565b8060005b8581101561312f57848403895281516131108582612b95565b945061311b83612ba9565b925060208a019950506001810190506130f7565b50829750879550505050505092915050565b600061014082019050613157600083018d612de7565b613164602083018c612ff3565b613171604083018b612de7565b8181036060830152613183818a613013565b905081810360808301526131978189613013565b905081810360a08301526131ab8188613013565b905081810360c08301526131bf8187613013565b905081810360e08301526131d38186613013565b90508181036101008301526131e8818561305d565b90508181036101208301526131fd81846130cc565b90509b9a5050505050505050505050565b600080fd5b600080fd5b7f4e487b7100000000000000000000000000000000000000000000000000000000600052604160045260246000fd5b61325082612a70565b810181811067ffffffffffffffff8211171561326f5761326e613218565b5b80604052505050565b600061328261292e565b905061328e8282613247565b919050565b600067ffffffffffffffff8211156132ae576132ad613218565b5b6132b782612a70565b9050602081019050919050565b82818337600083830152505050565b60006132e66132e184613293565b613278565b90508281526020810184848401111561330257613301613213565b5b61330d8482856132c4565b509392505050565b600082601f83011261332a5761332961320e565b5b813561333a8482602086016132d3565b91505092915050565b600080600080600080600060e0888a03121561336257613361612938565b5b60006133708a828b0161298b565b97505060206133818a828b01612fb1565b965050604088013567ffffffffffffffff8111156133a2576133a161293d565b5b6133ae8a828b01613315565b955050606088013567ffffffffffffffff8111156133cf576133ce61293d565b5b6133db8a828b01613315565b945050608088013567ffffffffffffffff8111156133fc576133fb61293d565b5b6134088a828b01613315565b93505060a088013567ffffffffffffffff8111156134295761342861293d565b5b6134358a828b01613315565b92505060c088013567ffffffffffffffff8111156134565761345561293d565b5b6134628a828b01613315565b91505092959891949750929550565b600060c0820190506134866000830189612de7565b81810360208301526134988188613013565b905081810360408301526134ac8187613013565b905081810360608301526134c08186613013565b905081810360808301526134d48185613013565b905081810360a08301526134e88184613013565b9050979650505050505050565b600060a08201905061350a6000830188612de7565b818103602083015261351c8187613013565b905081810360408301526135308186613013565b905081810360608301526135448185613013565b905081810360808301526135588184613013565b90509695505050505050565b6000806040838503121561357b5761357a612938565b5b600061358985828601612fb1565b925050602061359a8582860161298b565b9150509250929050565b6000806000606084860312156135bd576135bc612938565b5b60006135cb86828701612fb1565b93505060206135dc86828701612fb1565b92505060406135ed8682870161298b565b9150509250925092565b61360081612e3d565b811461360b57600080fd5b50565b60008135905061361d816135f7565b92915050565b600080fd5b600080fd5b60008083601f8401126136435761364261320e565b5b8235905067ffffffffffffffff8111156136605761365f613623565b5b60208301915083600182028301111561367c5761367b613628565b5b9250929050565b60008060008060006080868803121561369f5761369e612938565b5b60006136ad88828901612fb1565b95505060206136be8882890161360e565b945050604086013567ffffffffffffffff8111156136df576136de61293d565b5b6136eb8882890161362d565b935093505060606136fe8882890161298b565b9150509295509295909350565b60008060006060848603121561372457613723612938565b5b60006137328682870161298b565b935050602061374386828701612fb1565b925050604061375486828701612fb1565b9150509250925092565b600060208201905081810360008301526137788184613013565b905092915050565b7f4e487b7100000000000000000000000000000000000000000000000000000000600052601160045260246000fd5b60006137ba826129f9565b91506137c5836129f9565b9250827fffffffffffffffffffffffffffffffffffffffffffffffffffffffffffffffff038211156137fa576137f9613780565b5b828201905092915050565b6000613810826129f9565b91507fffffffffffffffffffffffffffffffffffffffffffffffffffffffffffffffff82141561384357613842613780565b5b600182019050919050565b7f4e487b7100000000000000000000000000000000000000000000000000000000600052602260045260246000fd5b6000600282049050600182168061389557607f821691505b602082108114156138a9576138a861384e565b5b50919050565b7f4e487b7100000000000000000000000000000000000000000000000000000000600052603260045260246000fd5b7f596f7520617265206e6f7420616e206f776e6572000000000000000000000000600082015250565b6000613914601483613002565b915061391f826138de565b602082019050919050565b6000602082019050818103600083015261394381613907565b9050919050565b7f5072696365206d7573742062652067726561746572207468616e20302e000000600082015250565b6000613980601d83613002565b915061398b8261394a565b602082019050919050565b600060208201905081810360008301526139af81613973565b9050919050565b7f6f6e6c79206f776e6572206f662074686520636f6e74726163742063616e206360008201527f68616e676520746865206c697374696e67207072696365000000000000000000602082015250565b6000613a12603783613002565b9150613a1d826139b6565b604082019050919050565b60006020820190508181036000830152613a4181613a05565b9050919050565b7f4f6e6c7920636f6e7472616374206f776e65722063616e20757064617465206c60008201527f697374696e672070726963652e00000000000000000000000000000000000000602082015250565b6000613aa4602d83613002565b9150613aaf82613a48565b604082019050919050565b60006020820190508181036000830152613ad381613a97565b9050919050565b7f496e73756666696369656e742066756e64732e00000000000000000000000000600082015250565b6000613b10601383613002565b9150613b1b82613ada565b602082019050919050565b60006020820190508181036000830152613b3f81613b03565b9050919050565b600081905092915050565b50565b6000613b61600083613b46565b9150613b6c82613b51565b600082019050919050565b6000613b8282613b54565b9150819050919050565b7f4e487b7100000000000000000000000000000000000000000000000000000000600052601260045260246000fd5b6000613bc6826129f9565b9150613bd1836129f9565b925082613be157613be0613b8c565b5b828204905092915050565b7f526174696e67206d757374206265206265747765656e203120616e6420352e00600082015250565b6000613c22601f83613002565b9150613c2d82613bec565b602082019050919050565b60006020820190508181036000830152613c5181613c15565b9050919050565b613c6181612e3d565b82525050565b6000613c738385613002565b9350613c808385846132c4565b613c8983612a70565b840190509392505050565b6000604082019050613ca96000830186613c58565b8181036020830152613cbc818486613c67565b905094935050505056fea26469706673582212202e77e7745fc5bf49c748f29418cad0981f4f93e573e15db7a53067bfe796934b64736f6c63430008090033",
  "linkReferences": {},
  "deployedLinkReferences": {}
}